{"abi":[{"type":"function","name":"aggregate","inputs":[{"name":"calls","type":"tuple[]","internalType":"struct Multicall.Call[]","components":[{"name":"target","type":"address","internalType":"address"},{"name":"callData","type":"bytes","internalType":"bytes"}]}],"outputs":[{"name":"blockNumber","type":"uint256","internalType":"uint256"},{"name":"returnData","type":"bytes[]","internalType":"bytes[]"}],"stateMutability":"nonpayable"},{"type":"function","name":"getBlockHash","inputs":[{"name":"blockNumber","type":"uint256","internalType":"uint256"}],"outputs":[{"name":"blockHash","type":"bytes32","internalType":"bytes32"}],"stateMutability":"view"},{"type":"function","name":"getCurrentBlockCoinbase","inputs":[],"outputs":[{"name":"coinbase","type":"address","internalType":"address"}],"stateMutability":"view"},{"type":"function","name":"getCurrentBlockDifficulty","inputs":[],"outputs":[{"name":"difficulty","type":"uint256","internalType":"uint256"}],"stateMutability":"view"},{"type":"function","name":"getCurrentBlockGasLimit","inputs":[],"outputs":[{"name":"gaslimit","type":"uint256","internalType":"uint256"}],"stateMutability":"view"},{"type":"function","name":"getCurrentBlockTimestamp","inputs":[],"outputs":[{"name":"timestamp","type":"uint256","internalType":"uint256"}],"stateMutability":"view"},{"type":"function","name":"getEthBalance","inputs":[{"name":"addr","type":"address","internalType":"address"}],"outputs":[{"name":"balance","type":"uint256","internalType":"uint256"}],"stateMutability":"view"},{"type":"function","name":"getLastBlockHash","inputs":[],"outputs":[{"name":"blockHash","type":"bytes32","internalType":"bytes32"}],"stateMutability":"view"}],"bytecode":{"object":"0x6080604052348015600f57600080fd5b506105dd8061001f6000396000f3fe608060405234801561001057600080fd5b50600436106100885760003560e01c806372425d9d1161005b57806372425d9d146100e657806386d516e8146100ec578063a8b0574e146100f2578063ee82ac5e1461010057600080fd5b80630f28c97d1461008d578063252dba42146100a257806327e86d6e146100c35780634d2301cc146100cb575b600080fd5b425b6040519081526020015b60405180910390f35b6100b56100b03660046102e6565b610112565b60405161009992919061048c565b61008f610247565b61008f6100d9366004610513565b6001600160a01b03163190565b4461008f565b4561008f565b604051418152602001610099565b61008f61010e366004610535565b4090565b8051439060609067ffffffffffffffff8111156101315761013161025a565b60405190808252806020026020018201604052801561016457816020015b606081526020019060019003908161014f5790505b50905060005b8351811015610241576000808583815181106101885761018861054e565b6020026020010151600001516001600160a01b03168684815181106101af576101af61054e565b6020026020010151602001516040516101c89190610564565b6000604051808303816000865af19150503d8060008114610205576040519150601f19603f3d011682016040523d82523d6000602084013e61020a565b606091505b50915091508161021957600080fd5b8084848151811061022c5761022c61054e565b6020908102919091010152505060010161016a565b50915091565b6000610254600143610580565b40905090565b634e487b7160e01b600052604160045260246000fd5b6040805190810167ffffffffffffffff811182821017156102935761029361025a565b60405290565b604051601f8201601f1916810167ffffffffffffffff811182821017156102c2576102c261025a565b604052919050565b80356001600160a01b03811681146102e157600080fd5b919050565b6000602082840312156102f857600080fd5b813567ffffffffffffffff81111561030f57600080fd5b8201601f8101841361032057600080fd5b803567ffffffffffffffff81111561033a5761033a61025a565b8060051b61034a60208201610299565b9182526020818401810192908101908784111561036657600080fd5b6020850192505b8383101561045d57823567ffffffffffffffff81111561038c57600080fd5b85016040818a03601f190112156103a257600080fd5b6103aa610270565b6103b6602083016102ca565b8152604082013567ffffffffffffffff8111156103d257600080fd5b60208184010192505089601f8301126103ea57600080fd5b813567ffffffffffffffff8111156104045761040461025a565b610417601f8201601f1916602001610299565b8181528b602083860101111561042c57600080fd5b816020850160208301376000602083830101528060208401525050808452505060208201915060208301925061036d565b979650505050505050565b60005b8381101561048357818101518382015260200161046b565b50506000910152565b6000604082018483526040602084015280845180835260608501915060608160051b86010192506020860160005b8281101561050657605f19878603018452815180518087526104e3816020890160208501610468565b601f01601f191695909501602090810195509384019391909101906001016104ba565b5092979650505050505050565b60006020828403121561052557600080fd5b61052e826102ca565b9392505050565b60006020828403121561054757600080fd5b5035919050565b634e487b7160e01b600052603260045260246000fd5b60008251610576818460208701610468565b9190910192915050565b818103818111156105a157634e487b7160e01b600052601160045260246000fd5b9291505056fea2646970667358221220fc875f451ff82ef9f1114bc92c80ead8d8fdcd3bc27f2965423f72a9245f1ee464736f6c634300081a0033","linkReferences":{}},"methodIdentifiers":{"aggregate((address,bytes)[])":"252dba42","getBlockHash(uint256)":"ee82ac5e","getCurrentBlockCoinbase()":"a8b0574e","getCurrentBlockDifficulty()":"72425d9d","getCurrentBlockGasLimit()":"86d516e8","getCurrentBlockTimestamp()":"0f28c97d","getEthBalance(address)":"4d2301cc","getLastBlockHash()":"27e86d6e"},"id":0}