{"abi":[{"type":"receive","stateMutability":"payable"},{"type":"function","name":"DOMAIN_SEPARATOR","inputs":[],"outputs":[{"name":"","type":"bytes32","internalType":"bytes32"}],"stateMutability":"view"},{"type":"function","name":"allowance","inputs":[{"name":"","type":"address","internalType":"address"},{"name":"","type":"address","internalType":"address"}],"outputs":[{"name":"","type":"uint256","internalType":"uint256"}],"stateMutability":"view"},{"type":"function","name":"approve","inputs":[{"name":"spender","type":"address","internalType":"address"},{"name":"amount","type":"uint256","internalType":"uint256"}],"outputs":[{"name":"","type":"bool","internalType":"bool"}],"stateMutability":"nonpayable"},{"type":"function","name":"balanceOf","inputs":[{"name":"","type":"address","internalType":"address"}],"outputs":[{"name":"","type":"uint256","internalType":"uint256"}],"stateMutability":"view"},{"type":"function","name":"decimals","inputs":[],"outputs":[{"name":"","type":"uint8","internalType":"uint8"}],"stateMutability":"view"},{"type":"function","name":"deposit","inputs":[],"outputs":[],"stateMutability":"payable"},{"type":"function","name":"name","inputs":[],"outputs":[{"name":"","type":"string","internalType":"string"}],"stateMutability":"view"},{"type":"function","name":"nonces","inputs":[{"name":"","type":"address","internalType":"address"}],"outputs":[{"name":"","type":"uint256","internalType":"uint256"}],"stateMutability":"view"},{"type":"function","name":"permit","inputs":[{"name":"owner","type":"address","internalType":"address"},{"name":"spender","type":"address","internalType":"address"},{"name":"value","type":"uint256","internalType":"uint256"},{"name":"deadline","type":"uint256","internalType":"uint256"},{"name":"v","type":"uint8","internalType":"uint8"},{"name":"r","type":"bytes32","internalType":"bytes32"},{"name":"s","type":"bytes32","internalType":"bytes32"}],"outputs":[],"stateMutability":"nonpayable"},{"type":"function","name":"symbol","inputs":[],"outputs":[{"name":"","type":"string","internalType":"string"}],"stateMutability":"view"},{"type":"function","name":"totalSupply","inputs":[],"outputs":[{"name":"","type":"uint256","internalType":"uint256"}],"stateMutability":"view"},{"type":"function","name":"transfer","inputs":[{"name":"to","type":"address","internalType":"address"},{"name":"amount","type":"uint256","internalType":"uint256"}],"outputs":[{"name":"","type":"bool","internalType":"bool"}],"stateMutability":"nonpayable"},{"type":"function","name":"transferFrom","inputs":[{"name":"from","type":"address","internalType":"address"},{"name":"to","type":"address","internalType":"address"},{"name":"amount","type":"uint256","internalType":"uint256"}],"outputs":[{"name":"","type":"bool","internalType":"bool"}],"stateMutability":"nonpayable"},{"type":"function","name":"withdraw","inputs":[{"name":"amount","type":"uint256","internalType":"uint256"}],"outputs":[],"stateMutability":"nonpayable"},{"type":"event","name":"Approval","inputs":[{"name":"owner","type":"address","indexed":true,"internalType":"address"},{"name":"spender","type":"address","indexed":true,"internalType":"address"},{"name":"amount","type":"uint256","indexed":false,"internalType":"uint256"}],"anonymous":false},{"type":"event","name":"Deposit","inputs":[{"name":"from","type":"address","indexed":true,"internalType":"address"},{"name":"amount","type":"uint256","indexed":false,"internalType":"uint256"}],"anonymous":false},{"type":"event","name":"Transfer","inputs":[{"name":"from","type":"address","indexed":true,"internalType":"address"},{"name":"to","type":"address","indexed":true,"internalType":"address"},{"name":"amount","type":"uint256","indexed":false,"internalType":"uint256"}],"anonymous":false},{"type":"event","name":"Withdrawal","inputs":[{"name":"to","type":"address","indexed":true,"internalType":"address"},{"name":"amount","type":"uint256","indexed":false,"internalType":"uint256"}],"anonymous":false}],"bytecode":{"object":"0x60e06040523480156200001157600080fd5b506040518060400160405280600d81526020017f57726170706564204574686572000000000000000000000000000000000000008152506040518060400160405280600481526020017f574554480000000000000000000000000000000000000000000000000000000081525060128260009081620000919190620003e4565b508160019081620000a39190620003e4565b508060ff1660808160ff16815250504660a08181525050620000ca620000da60201b60201c565b60c0818152505050505062000661565b60007f8b73c3c69bb8fe3d512ecc4cf759cc79239f7b179b0ffacaa9a75d522b39400f60006040516200010e91906200057a565b60405180910390207fc89efdaa54c0f20c7adf612882df0950f5a951637e0307cdcb4c672f298b8bc646306040516020016200014f95949392919062000604565b60405160208183030381529060405280519060200120905090565b600081519050919050565b7f4e487b7100000000000000000000000000000000000000000000000000000000600052604160045260246000fd5b7f4e487b7100000000000000000000000000000000000000000000000000000000600052602260045260246000fd5b60006002820490506001821680620001ec57607f821691505b602082108103620002025762000201620001a4565b5b50919050565b60008190508160005260206000209050919050565b60006020601f8301049050919050565b600082821b905092915050565b6000600883026200026c7fffffffffffffffffffffffffffffffffffffffffffffffffffffffffffffffff826200022d565b6200027886836200022d565b95508019841693508086168417925050509392505050565b6000819050919050565b6000819050919050565b6000620002c5620002bf620002b98462000290565b6200029a565b62000290565b9050919050565b6000819050919050565b620002e183620002a4565b620002f9620002f082620002cc565b8484546200023a565b825550505050565b600090565b6200031062000301565b6200031d818484620002d6565b505050565b5b8181101562000345576200033960008262000306565b60018101905062000323565b5050565b601f82111562000394576200035e8162000208565b62000369846200021d565b8101602085101562000379578190505b6200039162000388856200021d565b83018262000322565b50505b505050565b600082821c905092915050565b6000620003b96000198460080262000399565b1980831691505092915050565b6000620003d48383620003a6565b9150826002028217905092915050565b620003ef826200016a565b67ffffffffffffffff8111156200040b576200040a62000175565b5b620004178254620001d3565b6200042482828562000349565b600060209050601f8311600181146200045c576000841562000447578287015190505b620004538582620003c6565b865550620004c3565b601f1984166200046c8662000208565b60005b8281101562000496578489015182556001820191506020850194506020810190506200046f565b86831015620004b65784890151620004b2601f891682620003a6565b8355505b6001600288020188555050505b505050505050565b600081905092915050565b60008190508160005260206000209050919050565b60008154620004fa81620001d3565b620005068186620004cb565b945060018216600081146200052457600181146200053a5762000571565b60ff198316865281151582028601935062000571565b6200054585620004d6565b60005b83811015620005695781548189015260018201915060208101905062000548565b838801955050505b50505092915050565b6000620005888284620004eb565b915081905092915050565b6000819050919050565b620005a88162000593565b82525050565b620005b98162000290565b82525050565b600073ffffffffffffffffffffffffffffffffffffffff82169050919050565b6000620005ec82620005bf565b9050919050565b620005fe81620005df565b82525050565b600060a0820190506200061b60008301886200059d565b6200062a60208301876200059d565b6200063960408301866200059d565b620006486060830185620005ae565b620006576080830184620005f3565b9695505050505050565b60805160a05160c0516119536200069160003960006108a00152600061086c0152600061084601526119536000f3fe6080604052600436106100e15760003560e01c806370a082311161007f578063a9059cbb11610059578063a9059cbb146102e9578063d0e30db014610326578063d505accf14610330578063dd62ed3e14610359576100f0565b806370a08231146102445780637ecebe001461028157806395d89b41146102be576100f0565b806323b872dd116100bb57806323b872dd146101885780632e1a7d4d146101c5578063313ce567146101ee5780633644e51514610219576100f0565b806306fdde03146100f5578063095ea7b31461012057806318160ddd1461015d576100f0565b366100f0576100ee610396565b005b600080fd5b34801561010157600080fd5b5061010a6103f0565b60405161011791906110c4565b60405180910390f35b34801561012c57600080fd5b506101476004803603810190610142919061117f565b61047e565b60405161015491906111da565b60405180910390f35b34801561016957600080fd5b50610172610570565b60405161017f9190611204565b60405180910390f35b34801561019457600080fd5b506101af60048036038101906101aa919061121f565b610576565b6040516101bc91906111da565b60405180910390f35b3480156101d157600080fd5b506101ec60048036038101906101e79190611272565b6107c0565b005b3480156101fa57600080fd5b50610203610844565b60405161021091906112bb565b60405180910390f35b34801561022557600080fd5b5061022e610868565b60405161023b91906112ef565b60405180910390f35b34801561025057600080fd5b5061026b6004803603810190610266919061130a565b6108c5565b6040516102789190611204565b60405180910390f35b34801561028d57600080fd5b506102a860048036038101906102a3919061130a565b6108dd565b6040516102b59190611204565b60405180910390f35b3480156102ca57600080fd5b506102d36108f5565b6040516102e091906110c4565b60405180910390f35b3480156102f557600080fd5b50610310600480360381019061030b919061117f565b610983565b60405161031d91906111da565b60405180910390f35b61032e610396565b005b34801561033c57600080fd5b506103576004803603810190610352919061138f565b610a97565b005b34801561036557600080fd5b50610380600480360381019061037b9190611431565b610d90565b60405161038d9190611204565b60405180910390f35b6103a03334610db5565b3373ffffffffffffffffffffffffffffffffffffffff167fe1fffcc4923d04b559f4d29a8bfc6cda04eb5b0d3c460751c2402c5c5cc9109c346040516103e69190611204565b60405180910390a2565b600080546103fd906114a0565b80601f0160208091040260200160405190810160405280929190818152602001828054610429906114a0565b80156104765780601f1061044b57610100808354040283529160200191610476565b820191906000526020600020905b81548152906001019060200180831161045957829003601f168201915b505050505081565b600081600460003373ffffffffffffffffffffffffffffffffffffffff1673ffffffffffffffffffffffffffffffffffffffff16815260200190815260200160002060008573ffffffffffffffffffffffffffffffffffffffff1673ffffffffffffffffffffffffffffffffffffffff168152602001908152602001600020819055508273ffffffffffffffffffffffffffffffffffffffff163373ffffffffffffffffffffffffffffffffffffffff167f8c5be1e5ebec7d5bd14f71427d1e84f3dd0314c0f7b2291e5b200ac8c7c3b9258460405161055e9190611204565b60405180910390a36001905092915050565b60025481565b600080600460008673ffffffffffffffffffffffffffffffffffffffff1673ffffffffffffffffffffffffffffffffffffffff16815260200190815260200160002060003373ffffffffffffffffffffffffffffffffffffffff1673ffffffffffffffffffffffffffffffffffffffff1681526020019081526020016000205490507fffffffffffffffffffffffffffffffffffffffffffffffffffffffffffffffff81146106ac57828161062b9190611500565b600460008773ffffffffffffffffffffffffffffffffffffffff1673ffffffffffffffffffffffffffffffffffffffff16815260200190815260200160002060003373ffffffffffffffffffffffffffffffffffffffff1673ffffffffffffffffffffffffffffffffffffffff168152602001908152602001600020819055505b82600360008773ffffffffffffffffffffffffffffffffffffffff1673ffffffffffffffffffffffffffffffffffffffff16815260200190815260200160002060008282546106fb9190611500565b9250508190555082600360008673ffffffffffffffffffffffffffffffffffffffff1673ffffffffffffffffffffffffffffffffffffffff168152602001908152602001600020600082825401925050819055508373ffffffffffffffffffffffffffffffffffffffff168573ffffffffffffffffffffffffffffffffffffffff167fddf252ad1be2c89b69c2b068fc378daa952ba7f163c4a11628f55a4df523b3ef856040516107ac9190611204565b60405180910390a360019150509392505050565b6107ca3382610e85565b3373ffffffffffffffffffffffffffffffffffffffff167f7fcf532c15f0a6db0bd6d0e038bea71d30d808c7d98cb3bf7268a95bf5081b65826040516108109190611204565b60405180910390a2610841813373ffffffffffffffffffffffffffffffffffffffff16610f5590919063ffffffff16565b50565b7f000000000000000000000000000000000000000000000000000000000000000081565b60007f0000000000000000000000000000000000000000000000000000000000000000461461089e57610899610fa8565b6108c0565b7f00000000000000000000000000000000000000000000000000000000000000005b905090565b60036020528060005260406000206000915090505481565b60056020528060005260406000206000915090505481565b60018054610902906114a0565b80601f016020809104026020016040519081016040528092919081815260200182805461092e906114a0565b801561097b5780601f106109505761010080835404028352916020019161097b565b820191906000526020600020905b81548152906001019060200180831161095e57829003601f168201915b505050505081565b600081600360003373ffffffffffffffffffffffffffffffffffffffff1673ffffffffffffffffffffffffffffffffffffffff16815260200190815260200160002060008282546109d49190611500565b9250508190555081600360008573ffffffffffffffffffffffffffffffffffffffff1673ffffffffffffffffffffffffffffffffffffffff168152602001908152602001600020600082825401925050819055508273ffffffffffffffffffffffffffffffffffffffff163373ffffffffffffffffffffffffffffffffffffffff167fddf252ad1be2c89b69c2b068fc378daa952ba7f163c4a11628f55a4df523b3ef84604051610a859190611204565b60405180910390a36001905092915050565b42841015610ada576040517f08c379a0000000000000000000000000000000000000000000000000000000008152600401610ad190611580565b60405180910390fd5b60006001610ae6610868565b7f6e71edae12b1b97f4d1f60370fef10105fa2faae0126114a169c64845d6126c98a8a8a600560008f73ffffffffffffffffffffffffffffffffffffffff1673ffffffffffffffffffffffffffffffffffffffff1681526020019081526020016000206000815480929190600101919050558b604051602001610b6e969594939291906115af565b60405160208183030381529060405280519060200120604051602001610b95929190611688565b6040516020818303038152906040528051906020012085858560405160008152602001604052604051610bcb94939291906116bf565b6020604051602081039080840390855afa158015610bed573d6000803e3d6000fd5b505050602060405103519050600073ffffffffffffffffffffffffffffffffffffffff168173ffffffffffffffffffffffffffffffffffffffff1614158015610c6157508773ffffffffffffffffffffffffffffffffffffffff168173ffffffffffffffffffffffffffffffffffffffff16145b610ca0576040517f08c379a0000000000000000000000000000000000000000000000000000000008152600401610c9790611750565b60405180910390fd5b85600460008373ffffffffffffffffffffffffffffffffffffffff1673ffffffffffffffffffffffffffffffffffffffff16815260200190815260200160002060008973ffffffffffffffffffffffffffffffffffffffff1673ffffffffffffffffffffffffffffffffffffffff16815260200190815260200160002081905550508573ffffffffffffffffffffffffffffffffffffffff168773ffffffffffffffffffffffffffffffffffffffff167f8c5be1e5ebec7d5bd14f71427d1e84f3dd0314c0f7b2291e5b200ac8c7c3b92587604051610d7f9190611204565b60405180910390a350505050505050565b6004602052816000526040600020602052806000526040600020600091509150505481565b8060026000828254610dc79190611770565b9250508190555080600360008473ffffffffffffffffffffffffffffffffffffffff1673ffffffffffffffffffffffffffffffffffffffff168152602001908152602001600020600082825401925050819055508173ffffffffffffffffffffffffffffffffffffffff16600073ffffffffffffffffffffffffffffffffffffffff167fddf252ad1be2c89b69c2b068fc378daa952ba7f163c4a11628f55a4df523b3ef83604051610e799190611204565b60405180910390a35050565b80600360008473ffffffffffffffffffffffffffffffffffffffff1673ffffffffffffffffffffffffffffffffffffffff1681526020019081526020016000206000828254610ed49190611500565b9250508190555080600260008282540392505081905550600073ffffffffffffffffffffffffffffffffffffffff168273ffffffffffffffffffffffffffffffffffffffff167fddf252ad1be2c89b69c2b068fc378daa952ba7f163c4a11628f55a4df523b3ef83604051610f499190611204565b60405180910390a35050565b600080600080600085875af1905080610fa3576040517f08c379a0000000000000000000000000000000000000000000000000000000008152600401610f9a906117f0565b60405180910390fd5b505050565b60007f8b73c3c69bb8fe3d512ecc4cf759cc79239f7b179b0ffacaa9a75d522b39400f6000604051610fda91906118b3565b60405180910390207fc89efdaa54c0f20c7adf612882df0950f5a951637e0307cdcb4c672f298b8bc646306040516020016110199594939291906118ca565b60405160208183030381529060405280519060200120905090565b600081519050919050565b600082825260208201905092915050565b60005b8381101561106e578082015181840152602081019050611053565b60008484015250505050565b6000601f19601f8301169050919050565b600061109682611034565b6110a0818561103f565b93506110b0818560208601611050565b6110b98161107a565b840191505092915050565b600060208201905081810360008301526110de818461108b565b905092915050565b600080fd5b600073ffffffffffffffffffffffffffffffffffffffff82169050919050565b6000611116826110eb565b9050919050565b6111268161110b565b811461113157600080fd5b50565b6000813590506111438161111d565b92915050565b6000819050919050565b61115c81611149565b811461116757600080fd5b50565b60008135905061117981611153565b92915050565b60008060408385031215611196576111956110e6565b5b60006111a485828601611134565b92505060206111b58582860161116a565b9150509250929050565b60008115159050919050565b6111d4816111bf565b82525050565b60006020820190506111ef60008301846111cb565b92915050565b6111fe81611149565b82525050565b600060208201905061121960008301846111f5565b92915050565b600080600060608486031215611238576112376110e6565b5b600061124686828701611134565b935050602061125786828701611134565b92505060406112688682870161116a565b9150509250925092565b600060208284031215611288576112876110e6565b5b60006112968482850161116a565b91505092915050565b600060ff82169050919050565b6112b58161129f565b82525050565b60006020820190506112d060008301846112ac565b92915050565b6000819050919050565b6112e9816112d6565b82525050565b600060208201905061130460008301846112e0565b92915050565b6000602082840312156113205761131f6110e6565b5b600061132e84828501611134565b91505092915050565b6113408161129f565b811461134b57600080fd5b50565b60008135905061135d81611337565b92915050565b61136c816112d6565b811461137757600080fd5b50565b60008135905061138981611363565b92915050565b600080600080600080600060e0888a0312156113ae576113ad6110e6565b5b60006113bc8a828b01611134565b97505060206113cd8a828b01611134565b96505060406113de8a828b0161116a565b95505060606113ef8a828b0161116a565b94505060806114008a828b0161134e565b93505060a06114118a828b0161137a565b92505060c06114228a828b0161137a565b91505092959891949750929550565b60008060408385031215611448576114476110e6565b5b600061145685828601611134565b925050602061146785828601611134565b9150509250929050565b7f4e487b7100000000000000000000000000000000000000000000000000000000600052602260045260246000fd5b600060028204905060018216806114b857607f821691505b6020821081036114cb576114ca611471565b5b50919050565b7f4e487b7100000000000000000000000000000000000000000000000000000000600052601160045260246000fd5b600061150b82611149565b915061151683611149565b925082820390508181111561152e5761152d6114d1565b5b92915050565b7f5045524d49545f444541444c494e455f45585049524544000000000000000000600082015250565b600061156a60178361103f565b915061157582611534565b602082019050919050565b600060208201905081810360008301526115998161155d565b9050919050565b6115a98161110b565b82525050565b600060c0820190506115c460008301896112e0565b6115d160208301886115a0565b6115de60408301876115a0565b6115eb60608301866111f5565b6115f860808301856111f5565b61160560a08301846111f5565b979650505050505050565b600081905092915050565b7f1901000000000000000000000000000000000000000000000000000000000000600082015250565b6000611651600283611610565b915061165c8261161b565b600282019050919050565b6000819050919050565b61168261167d826112d6565b611667565b82525050565b600061169382611644565b915061169f8285611671565b6020820191506116af8284611671565b6020820191508190509392505050565b60006080820190506116d460008301876112e0565b6116e160208301866112ac565b6116ee60408301856112e0565b6116fb60608301846112e0565b95945050505050565b7f494e56414c49445f5349474e4552000000000000000000000000000000000000600082015250565b600061173a600e8361103f565b915061174582611704565b602082019050919050565b600060208201905081810360008301526117698161172d565b9050919050565b600061177b82611149565b915061178683611149565b925082820190508082111561179e5761179d6114d1565b5b92915050565b7f4554485f5452414e534645525f4641494c454400000000000000000000000000600082015250565b60006117da60138361103f565b91506117e5826117a4565b602082019050919050565b60006020820190508181036000830152611809816117cd565b9050919050565b600081905092915050565b60008190508160005260206000209050919050565b6000815461183d816114a0565b6118478186611810565b945060018216600081146118625760018114611877576118aa565b60ff19831686528115158202860193506118aa565b6118808561181b565b60005b838110156118a257815481890152600182019150602081019050611883565b838801955050505b50505092915050565b60006118bf8284611830565b915081905092915050565b600060a0820190506118df60008301886112e0565b6118ec60208301876112e0565b6118f960408301866112e0565b61190660608301856111f5565b61191360808301846115a0565b969550505050505056fea264697066735822122060d19e582f8e309442aae3177a54a5c33f920b14a4c30c0540e6ef883f2faefb64736f6c63430008180033","linkReferences":{}},"methodIdentifiers":{"DOMAIN_SEPARATOR()":"3644e515","allowance(address,address)":"dd62ed3e","approve(address,uint256)":"095ea7b3","balanceOf(address)":"70a08231","decimals()":"313ce567","deposit()":"d0e30db0","name()":"06fdde03","nonces(address)":"7ecebe00","permit(address,address,uint256,uint256,uint8,bytes32,bytes32)":"d505accf","symbol()":"95d89b41","totalSupply()":"18160ddd","transfer(address,uint256)":"a9059cbb","transferFrom(address,address,uint256)":"23b872dd","withdraw(uint256)":"2e1a7d4d"},"id":24}