{"abi":[{"type":"constructor","inputs":[{"name":"name_","type":"string","internalType":"string"},{"name":"symbol_","type":"string","internalType":"string"}],"stateMutability":"nonpayable"},{"type":"function","name":"DOMAIN_SEPARATOR","inputs":[],"outputs":[{"name":"","type":"bytes32","internalType":"bytes32"}],"stateMutability":"view"},{"type":"function","name":"allowance","inputs":[{"name":"","type":"address","internalType":"address"},{"name":"","type":"address","internalType":"address"}],"outputs":[{"name":"","type":"uint256","internalType":"uint256"}],"stateMutability":"view"},{"type":"function","name":"approve","inputs":[{"name":"spender","type":"address","internalType":"address"},{"name":"amount","type":"uint256","internalType":"uint256"}],"outputs":[{"name":"","type":"bool","internalType":"bool"}],"stateMutability":"nonpayable"},{"type":"function","name":"balanceOf","inputs":[{"name":"","type":"address","internalType":"address"}],"outputs":[{"name":"","type":"uint256","internalType":"uint256"}],"stateMutability":"view"},{"type":"function","name":"decimals","inputs":[],"outputs":[{"name":"","type":"uint8","internalType":"uint8"}],"stateMutability":"view"},{"type":"function","name":"mint","inputs":[{"name":"amount","type":"uint256","internalType":"uint256"},{"name":"to","type":"address","internalType":"address"}],"outputs":[],"stateMutability":"nonpayable"},{"type":"function","name":"name","inputs":[],"outputs":[{"name":"","type":"string","internalType":"string"}],"stateMutability":"view"},{"type":"function","name":"nonces","inputs":[{"name":"","type":"address","internalType":"address"}],"outputs":[{"name":"","type":"uint256","internalType":"uint256"}],"stateMutability":"view"},{"type":"function","name":"permit","inputs":[{"name":"owner","type":"address","internalType":"address"},{"name":"spender","type":"address","internalType":"address"},{"name":"value","type":"uint256","internalType":"uint256"},{"name":"deadline","type":"uint256","internalType":"uint256"},{"name":"v","type":"uint8","internalType":"uint8"},{"name":"r","type":"bytes32","internalType":"bytes32"},{"name":"s","type":"bytes32","internalType":"bytes32"}],"outputs":[],"stateMutability":"nonpayable"},{"type":"function","name":"symbol","inputs":[],"outputs":[{"name":"","type":"string","internalType":"string"}],"stateMutability":"view"},{"type":"function","name":"totalSupply","inputs":[],"outputs":[{"name":"","type":"uint256","internalType":"uint256"}],"stateMutability":"view"},{"type":"function","name":"transfer","inputs":[{"name":"to","type":"address","internalType":"address"},{"name":"amount","type":"uint256","internalType":"uint256"}],"outputs":[{"name":"","type":"bool","internalType":"bool"}],"stateMutability":"nonpayable"},{"type":"function","name":"transferFrom","inputs":[{"name":"from","type":"address","internalType":"address"},{"name":"to","type":"address","internalType":"address"},{"name":"amount","type":"uint256","internalType":"uint256"}],"outputs":[{"name":"","type":"bool","internalType":"bool"}],"stateMutability":"nonpayable"},{"type":"event","name":"Approval","inputs":[{"name":"owner","type":"address","indexed":true,"internalType":"address"},{"name":"spender","type":"address","indexed":true,"internalType":"address"},{"name":"amount","type":"uint256","indexed":false,"internalType":"uint256"}],"anonymous":false},{"type":"event","name":"Transfer","inputs":[{"name":"from","type":"address","indexed":true,"internalType":"address"},{"name":"to","type":"address","indexed":true,"internalType":"address"},{"name":"amount","type":"uint256","indexed":false,"internalType":"uint256"}],"anonymous":false}],"bytecode":{"object":"0x60e06040523480156200001157600080fd5b5060405162001e6a38038062001e6a8339818101604052810190620000379190620002ba565b8181601282600090816200004c91906200058a565b5081600190816200005e91906200058a565b508060ff1660808160ff16815250504660a08181525050620000856200009760201b60201c565b60c08181525050505050505062000807565b60007f8b73c3c69bb8fe3d512ecc4cf759cc79239f7b179b0ffacaa9a75d522b39400f6000604051620000cb919062000720565b60405180910390207fc89efdaa54c0f20c7adf612882df0950f5a951637e0307cdcb4c672f298b8bc646306040516020016200010c959493929190620007aa565b60405160208183030381529060405280519060200120905090565b6000604051905090565b600080fd5b600080fd5b600080fd5b600080fd5b6000601f19601f8301169050919050565b7f4e487b7100000000000000000000000000000000000000000000000000000000600052604160045260246000fd5b620001908262000145565b810181811067ffffffffffffffff82111715620001b257620001b162000156565b5b80604052505050565b6000620001c762000127565b9050620001d5828262000185565b919050565b600067ffffffffffffffff821115620001f857620001f762000156565b5b620002038262000145565b9050602081019050919050565b60005b838110156200023057808201518184015260208101905062000213565b60008484015250505050565b6000620002536200024d84620001da565b620001bb565b90508281526020810184848401111562000272576200027162000140565b5b6200027f84828562000210565b509392505050565b600082601f8301126200029f576200029e6200013b565b5b8151620002b18482602086016200023c565b91505092915050565b60008060408385031215620002d457620002d362000131565b5b600083015167ffffffffffffffff811115620002f557620002f462000136565b5b620003038582860162000287565b925050602083015167ffffffffffffffff81111562000327576200032662000136565b5b620003358582860162000287565b9150509250929050565b600081519050919050565b7f4e487b7100000000000000000000000000000000000000000000000000000000600052602260045260246000fd5b600060028204905060018216806200039257607f821691505b602082108103620003a857620003a76200034a565b5b50919050565b60008190508160005260206000209050919050565b60006020601f8301049050919050565b600082821b905092915050565b600060088302620004127fffffffffffffffffffffffffffffffffffffffffffffffffffffffffffffffff82620003d3565b6200041e8683620003d3565b95508019841693508086168417925050509392505050565b6000819050919050565b6000819050919050565b60006200046b620004656200045f8462000436565b62000440565b62000436565b9050919050565b6000819050919050565b62000487836200044a565b6200049f620004968262000472565b848454620003e0565b825550505050565b600090565b620004b6620004a7565b620004c38184846200047c565b505050565b5b81811015620004eb57620004df600082620004ac565b600181019050620004c9565b5050565b601f8211156200053a576200050481620003ae565b6200050f84620003c3565b810160208510156200051f578190505b620005376200052e85620003c3565b830182620004c8565b50505b505050565b600082821c905092915050565b60006200055f600019846008026200053f565b1980831691505092915050565b60006200057a83836200054c565b9150826002028217905092915050565b62000595826200033f565b67ffffffffffffffff811115620005b157620005b062000156565b5b620005bd825462000379565b620005ca828285620004ef565b600060209050601f831160018114620006025760008415620005ed578287015190505b620005f985826200056c565b86555062000669565b601f1984166200061286620003ae565b60005b828110156200063c5784890151825560018201915060208501945060208101905062000615565b868310156200065c578489015162000658601f8916826200054c565b8355505b6001600288020188555050505b505050505050565b600081905092915050565b60008190508160005260206000209050919050565b60008154620006a08162000379565b620006ac818662000671565b94506001821660008114620006ca5760018114620006e05762000717565b60ff198316865281151582028601935062000717565b620006eb856200067c565b60005b838110156200070f57815481890152600182019150602081019050620006ee565b838801955050505b50505092915050565b60006200072e828462000691565b915081905092915050565b6000819050919050565b6200074e8162000739565b82525050565b6200075f8162000436565b82525050565b600073ffffffffffffffffffffffffffffffffffffffff82169050919050565b6000620007928262000765565b9050919050565b620007a48162000785565b82525050565b600060a082019050620007c1600083018862000743565b620007d0602083018762000743565b620007df604083018662000743565b620007ee606083018562000754565b620007fd608083018462000799565b9695505050505050565b60805160a05160c0516116336200083760003960006106ee015260006106ba0152600061069401526116336000f3fe608060405234801561001057600080fd5b50600436106100cf5760003560e01c806370a082311161008c57806395d89b411161006657806395d89b4114610228578063a9059cbb14610246578063d505accf14610276578063dd62ed3e14610292576100cf565b806370a08231146101ac5780637ecebe00146101dc57806394bf804d1461020c576100cf565b806306fdde03146100d4578063095ea7b3146100f257806318160ddd1461012257806323b872dd14610140578063313ce567146101705780633644e5151461018e575b600080fd5b6100dc6102c2565b6040516100e99190610dfd565b60405180910390f35b61010c60048036038101906101079190610eb8565b610350565b6040516101199190610f13565b60405180910390f35b61012a610442565b6040516101379190610f3d565b60405180910390f35b61015a60048036038101906101559190610f58565b610448565b6040516101679190610f13565b60405180910390f35b610178610692565b6040516101859190610fc7565b60405180910390f35b6101966106b6565b6040516101a39190610ffb565b60405180910390f35b6101c660048036038101906101c19190611016565b610713565b6040516101d39190610f3d565b60405180910390f35b6101f660048036038101906101f19190611016565b61072b565b6040516102039190610f3d565b60405180910390f35b61022660048036038101906102219190611043565b610743565b005b610230610751565b60405161023d9190610dfd565b60405180910390f35b610260600480360381019061025b9190610eb8565b6107df565b60405161026d9190610f13565b60405180910390f35b610290600480360381019061028b91906110db565b6108f3565b005b6102ac60048036038101906102a7919061117d565b610bec565b6040516102b99190610f3d565b60405180910390f35b600080546102cf906111ec565b80601f01602080910402602001604051908101604052809291908181526020018280546102fb906111ec565b80156103485780601f1061031d57610100808354040283529160200191610348565b820191906000526020600020905b81548152906001019060200180831161032b57829003601f168201915b505050505081565b600081600460003373ffffffffffffffffffffffffffffffffffffffff1673ffffffffffffffffffffffffffffffffffffffff16815260200190815260200160002060008573ffffffffffffffffffffffffffffffffffffffff1673ffffffffffffffffffffffffffffffffffffffff168152602001908152602001600020819055508273ffffffffffffffffffffffffffffffffffffffff163373ffffffffffffffffffffffffffffffffffffffff167f8c5be1e5ebec7d5bd14f71427d1e84f3dd0314c0f7b2291e5b200ac8c7c3b925846040516104309190610f3d565b60405180910390a36001905092915050565b60025481565b600080600460008673ffffffffffffffffffffffffffffffffffffffff1673ffffffffffffffffffffffffffffffffffffffff16815260200190815260200160002060003373ffffffffffffffffffffffffffffffffffffffff1673ffffffffffffffffffffffffffffffffffffffff1681526020019081526020016000205490507fffffffffffffffffffffffffffffffffffffffffffffffffffffffffffffffff811461057e5782816104fd919061124c565b600460008773ffffffffffffffffffffffffffffffffffffffff1673ffffffffffffffffffffffffffffffffffffffff16815260200190815260200160002060003373ffffffffffffffffffffffffffffffffffffffff1673ffffffffffffffffffffffffffffffffffffffff168152602001908152602001600020819055505b82600360008773ffffffffffffffffffffffffffffffffffffffff1673ffffffffffffffffffffffffffffffffffffffff16815260200190815260200160002060008282546105cd919061124c565b9250508190555082600360008673ffffffffffffffffffffffffffffffffffffffff1673ffffffffffffffffffffffffffffffffffffffff168152602001908152602001600020600082825401925050819055508373ffffffffffffffffffffffffffffffffffffffff168573ffffffffffffffffffffffffffffffffffffffff167fddf252ad1be2c89b69c2b068fc378daa952ba7f163c4a11628f55a4df523b3ef8560405161067e9190610f3d565b60405180910390a360019150509392505050565b7f000000000000000000000000000000000000000000000000000000000000000081565b60007f000000000000000000000000000000000000000000000000000000000000000046146106ec576106e7610c11565b61070e565b7f00000000000000000000000000000000000000000000000000000000000000005b905090565b60036020528060005260406000206000915090505481565b60056020528060005260406000206000915090505481565b61074d8183610c9d565b5050565b6001805461075e906111ec565b80601f016020809104026020016040519081016040528092919081815260200182805461078a906111ec565b80156107d75780601f106107ac576101008083540402835291602001916107d7565b820191906000526020600020905b8154815290600101906020018083116107ba57829003601f168201915b505050505081565b600081600360003373ffffffffffffffffffffffffffffffffffffffff1673ffffffffffffffffffffffffffffffffffffffff1681526020019081526020016000206000828254610830919061124c565b9250508190555081600360008573ffffffffffffffffffffffffffffffffffffffff1673ffffffffffffffffffffffffffffffffffffffff168152602001908152602001600020600082825401925050819055508273ffffffffffffffffffffffffffffffffffffffff163373ffffffffffffffffffffffffffffffffffffffff167fddf252ad1be2c89b69c2b068fc378daa952ba7f163c4a11628f55a4df523b3ef846040516108e19190610f3d565b60405180910390a36001905092915050565b42841015610936576040517f08c379a000000000000000000000000000000000000000000000000000000000815260040161092d906112cc565b60405180910390fd5b600060016109426106b6565b7f6e71edae12b1b97f4d1f60370fef10105fa2faae0126114a169c64845d6126c98a8a8a600560008f73ffffffffffffffffffffffffffffffffffffffff1673ffffffffffffffffffffffffffffffffffffffff1681526020019081526020016000206000815480929190600101919050558b6040516020016109ca969594939291906112fb565b604051602081830303815290604052805190602001206040516020016109f19291906113d4565b6040516020818303038152906040528051906020012085858560405160008152602001604052604051610a27949392919061140b565b6020604051602081039080840390855afa158015610a49573d6000803e3d6000fd5b505050602060405103519050600073ffffffffffffffffffffffffffffffffffffffff168173ffffffffffffffffffffffffffffffffffffffff1614158015610abd57508773ffffffffffffffffffffffffffffffffffffffff168173ffffffffffffffffffffffffffffffffffffffff16145b610afc576040517f08c379a0000000000000000000000000000000000000000000000000000000008152600401610af39061149c565b60405180910390fd5b85600460008373ffffffffffffffffffffffffffffffffffffffff1673ffffffffffffffffffffffffffffffffffffffff16815260200190815260200160002060008973ffffffffffffffffffffffffffffffffffffffff1673ffffffffffffffffffffffffffffffffffffffff16815260200190815260200160002081905550508573ffffffffffffffffffffffffffffffffffffffff168773ffffffffffffffffffffffffffffffffffffffff167f8c5be1e5ebec7d5bd14f71427d1e84f3dd0314c0f7b2291e5b200ac8c7c3b92587604051610bdb9190610f3d565b60405180910390a350505050505050565b6004602052816000526040600020602052806000526040600020600091509150505481565b60007f8b73c3c69bb8fe3d512ecc4cf759cc79239f7b179b0ffacaa9a75d522b39400f6000604051610c43919061155f565b60405180910390207fc89efdaa54c0f20c7adf612882df0950f5a951637e0307cdcb4c672f298b8bc64630604051602001610c82959493929190611576565b60405160208183030381529060405280519060200120905090565b8060026000828254610caf91906115c9565b9250508190555080600360008473ffffffffffffffffffffffffffffffffffffffff1673ffffffffffffffffffffffffffffffffffffffff168152602001908152602001600020600082825401925050819055508173ffffffffffffffffffffffffffffffffffffffff16600073ffffffffffffffffffffffffffffffffffffffff167fddf252ad1be2c89b69c2b068fc378daa952ba7f163c4a11628f55a4df523b3ef83604051610d619190610f3d565b60405180910390a35050565b600081519050919050565b600082825260208201905092915050565b60005b83811015610da7578082015181840152602081019050610d8c565b60008484015250505050565b6000601f19601f8301169050919050565b6000610dcf82610d6d565b610dd98185610d78565b9350610de9818560208601610d89565b610df281610db3565b840191505092915050565b60006020820190508181036000830152610e178184610dc4565b905092915050565b600080fd5b600073ffffffffffffffffffffffffffffffffffffffff82169050919050565b6000610e4f82610e24565b9050919050565b610e5f81610e44565b8114610e6a57600080fd5b50565b600081359050610e7c81610e56565b92915050565b6000819050919050565b610e9581610e82565b8114610ea057600080fd5b50565b600081359050610eb281610e8c565b92915050565b60008060408385031215610ecf57610ece610e1f565b5b6000610edd85828601610e6d565b9250506020610eee85828601610ea3565b9150509250929050565b60008115159050919050565b610f0d81610ef8565b82525050565b6000602082019050610f286000830184610f04565b92915050565b610f3781610e82565b82525050565b6000602082019050610f526000830184610f2e565b92915050565b600080600060608486031215610f7157610f70610e1f565b5b6000610f7f86828701610e6d565b9350506020610f9086828701610e6d565b9250506040610fa186828701610ea3565b9150509250925092565b600060ff82169050919050565b610fc181610fab565b82525050565b6000602082019050610fdc6000830184610fb8565b92915050565b6000819050919050565b610ff581610fe2565b82525050565b60006020820190506110106000830184610fec565b92915050565b60006020828403121561102c5761102b610e1f565b5b600061103a84828501610e6d565b91505092915050565b6000806040838503121561105a57611059610e1f565b5b600061106885828601610ea3565b925050602061107985828601610e6d565b9150509250929050565b61108c81610fab565b811461109757600080fd5b50565b6000813590506110a981611083565b92915050565b6110b881610fe2565b81146110c357600080fd5b50565b6000813590506110d5816110af565b92915050565b600080600080600080600060e0888a0312156110fa576110f9610e1f565b5b60006111088a828b01610e6d565b97505060206111198a828b01610e6d565b965050604061112a8a828b01610ea3565b955050606061113b8a828b01610ea3565b945050608061114c8a828b0161109a565b93505060a061115d8a828b016110c6565b92505060c061116e8a828b016110c6565b91505092959891949750929550565b6000806040838503121561119457611193610e1f565b5b60006111a285828601610e6d565b92505060206111b385828601610e6d565b9150509250929050565b7f4e487b7100000000000000000000000000000000000000000000000000000000600052602260045260246000fd5b6000600282049050600182168061120457607f821691505b602082108103611217576112166111bd565b5b50919050565b7f4e487b7100000000000000000000000000000000000000000000000000000000600052601160045260246000fd5b600061125782610e82565b915061126283610e82565b925082820390508181111561127a5761127961121d565b5b92915050565b7f5045524d49545f444541444c494e455f45585049524544000000000000000000600082015250565b60006112b6601783610d78565b91506112c182611280565b602082019050919050565b600060208201905081810360008301526112e5816112a9565b9050919050565b6112f581610e44565b82525050565b600060c0820190506113106000830189610fec565b61131d60208301886112ec565b61132a60408301876112ec565b6113376060830186610f2e565b6113446080830185610f2e565b61135160a0830184610f2e565b979650505050505050565b600081905092915050565b7f1901000000000000000000000000000000000000000000000000000000000000600082015250565b600061139d60028361135c565b91506113a882611367565b600282019050919050565b6000819050919050565b6113ce6113c982610fe2565b6113b3565b82525050565b60006113df82611390565b91506113eb82856113bd565b6020820191506113fb82846113bd565b6020820191508190509392505050565b60006080820190506114206000830187610fec565b61142d6020830186610fb8565b61143a6040830185610fec565b6114476060830184610fec565b95945050505050565b7f494e56414c49445f5349474e4552000000000000000000000000000000000000600082015250565b6000611486600e83610d78565b915061149182611450565b602082019050919050565b600060208201905081810360008301526114b581611479565b9050919050565b600081905092915050565b60008190508160005260206000209050919050565b600081546114e9816111ec565b6114f381866114bc565b9450600182166000811461150e576001811461152357611556565b60ff1983168652811515820286019350611556565b61152c856114c7565b60005b8381101561154e5781548189015260018201915060208101905061152f565b838801955050505b50505092915050565b600061156b82846114dc565b915081905092915050565b600060a08201905061158b6000830188610fec565b6115986020830187610fec565b6115a56040830186610fec565b6115b26060830185610f2e565b6115bf60808301846112ec565b9695505050505050565b60006115d482610e82565b91506115df83610e82565b92508282019050808211156115f7576115f661121d565b5b9291505056fea2646970667358221220cb8f425e35b1c7f2e5967190a5f087f7b96e0c8ce324024633cc4210c333a47464736f6c63430008180033","linkReferences":{}},"methodIdentifiers":{"DOMAIN_SEPARATOR()":"3644e515","allowance(address,address)":"dd62ed3e","approve(address,uint256)":"095ea7b3","balanceOf(address)":"70a08231","decimals()":"313ce567","mint(uint256,address)":"94bf804d","name()":"06fdde03","nonces(address)":"7ecebe00","permit(address,address,uint256,uint256,uint8,bytes32,bytes32)":"d505accf","symbol()":"95d89b41","totalSupply()":"18160ddd","transfer(address,uint256)":"a9059cbb","transferFrom(address,address,uint256)":"23b872dd"},"id":34}